S01A000064656C61795F74305F7072657363616C65722E73726563D8
S11300000C9434000C943E000C943E000C943E007E
S11300100C943E000C943E000C943E000C943E0064
S11300200C943E000C943E000C943E000C943E0054
S11300300C943E000C943E000C943E000C943E0044
S11300400C943E000C943E000C943E000C943E0034
S11300500C943E000C943E000C943E000C943E0024
S11300600C943E000C943E0011241FBECFEFD8E048
S1130070DEBFCDBF0E9457000C9461000C940000B9
S113008020E030E00FC016BC14BC85B5816085BD8E
S113009085B5846085BD85B3816085BBA89BFECF93
S11300A02F5F3F4F223682E0380768F3089584B10A
S11300B0806284B995B180E2892785B90E944000A5
S10900C0F9CFF894FFCF14
S9030000FC
