S010000050574D5F54305F312E73726563AD
S11300000C9434000C943E000C943E000C943E007E
S11300100C943E000C943E000C943E000C943E0064
S11300200C943E000C943E000C943E000C943E0054
S11300300C943E000C943E000C943E000C943E0044
S11300400C943E000C943E000C943E000C943E0034
S11300500C943E000C943E000C943E000C943E0024
S11300600C943E000C943E0011241FBECFEFD8E048
S1130070DEBFCDBF0E9440000C946A000C940000C7
S11300808AB180648AB984B5816084BD84B5826094
S113009084BD84B5806884BD85B5816085BD85B522
S11300A0826085BD80E008C087BDEFE3FCE931973D
S11300B0F1F700C000008F5F8F3FB1F708C087BD24
S11300C0EFE3FCE93197F1F700C0000081508111A2
S10B00D0F6CFE8CFF894FFCF4E
S9030000FC
