S017000044436D6F746F725F737769746368312E7372656333
S11300000C9434000C943E000C943E000C943E007E
S11300100C943E000C943E000C943E000C943E0064
S11300200C943E000C943E000C943E000C943E0054
S11300300C943E000C943E000C943E000C943E0044
S11300400C943E000C943E000C943E000C943E0034
S11300500C943E000C943E000C943E000C943E0024
S11300600C943E000C943E0011241FBECFEFD8E048
S1130070DEBFCDBF0E9440000C9492000C9400009F
S113008084B1806284B984B1806184B98AB18B7F80
S11300908AB98BB184608BB94A993DC085B18062BD
S11300A085B985B18F7E85B92FEF8BE792E9215011
S11300B080409040E1F700C0000085B18F7D85B994
S11300C085B18F7E85B92FEF83E294EF2150804074
S11300D09040E1F700C0000085B18F7D85B985B1FE
S11300E0806185B92FEF8BE792E9215080409040E1
S11300F0E1F700C0000085B18F7D85B985B18F7EA1
S113010085B92FEF83E294EF215080409040E1F7CE
S113011000C00000BECF85B18F7D85B985B18F7ECB
S10B012085B9B7CFF894FFCFB5
S9030000FC
