:100000000C9434000C943E000C943E000C943E0082
:100010000C943E000C943E000C943E000C943E0068
:100020000C943E000C943E000C943E000C943E0058
:100030000C943E000C943E000C943E000C943E0048
:100040000C943E000C943E000C943E000C943E0038
:100050000C943E000C943E000C943E000C943E0028
:100060000C943E000C943E0011241FBECFEFD8E04C
:10007000DEBFCDBF0E9440000C9469000C940000CC
:1000800084B1806284B984B5826084BD88EC87BD08
:1000900016BC85B5816085BD85B5846085BD85B399
:1000A000826085BB95B180E2892785B940E050E048
:1000B000BA0109C0A99BFECF85B3826085BB4F5FA3
:1000C0005F4F6F4F7F4F4C3951056105710594F3B8
:0600D000E9CFF894FFCF18
:00000001FF
