S00E000070776D5F74302E73726563BF
S11300000C9434000C943E000C943E000C943E007E
S11300100C943E000C943E000C943E000C943E0064
S11300200C943E000C943E000C943E000C943E0054
S11300300C943E000C943E000C943E000C943E0044
S11300400C943E000C943E000C943E000C943E0034
S11300500C943E000C943E000C943E000C943E0024
S11300600C943E000C943E0011241FBECFEFD8E048
S1130070DEBFCDBF0E9440000C9455000C940000DC
S11300808AB180648AB984B5816084BD84B5826094
S113009084BD84B5806884BD85B5826085BD85B521
S11100A0816085BD84E687BDFFCFF894FFCF55
S9030000FC
