S013000044436D6F746F7266756E632E73726563AD
S11300000C9434000C943E000C943E000C943E007E
S11300100C943E000C943E000C943E000C943E0064
S11300200C943E000C943E000C943E000C943E0054
S11300300C943E000C943E000C943E000C943E0044
S11300400C943E000C943E000C943E000C943E0034
S11300500C943E000C943E000C943E000C943E0024
S11300600C943E000C943E0011241FBECFEFD8E048
S1130070DEBFCDBF0E9455000C9485000C94000097
S113008085B1806185B985B18F7D85B9089585B1C4
S11300908F7E85B985B18F7D85B9089585B18F7EB1
S11300A085B985B1806285B9089584B1806384B9C6
S11300B00E9440002FEF8BE792E92150804090404E
S11300C0E1F700C000000E9447002FEF8BE792E9A0
S11300D0215080409040E1F700C000000E944E0093
S11300E02FEF8BE792E9215080409040E1F700C068
S11300F000000E9447002FEF83E294EF21508040DC
S11101009040E1F700C00000D3CFF894FFCF89
S9030000FC
