:100000000C9434000C943E000C943E000C943E0082
:100010000C943E000C943E000C943E000C943E0068
:100020000C943E000C943E000C943E000C943E0058
:100030000C943E000C943E000C943E000C943E0048
:100040000C943E000C943E000C943E000C943E0038
:100050000C943E000C943E000C943E000C943E0028
:100060000C943E000C943E0011241FBECFEFD8E04C
:10007000DEBFCDBF0E9440000C948F000C940000A6
:1000800084B1806284B984B1806184B98AB18B7F84
:100090008AB94A9B3DC085B1806285B985B18F7EA2
:1000A00085B92FEF8BE792E9215080409040E1F72E
:1000B00000C0000085B18F7D85B985B18F7E85B97F
:1000C0002FEF83E294EF215080409040E1F700C091
:1000D000000085B18F7D85B985B1806185B92FEF2D
:1000E0008BE792E9215080409040E1F700C000008A
:1000F00085B18F7D85B985B18F7E85B92FEF83E27C
:1001000094EF215080409040E1F700C00000C1CF43
:1001100085B18F7D85B985B18F7E85B9BACFF894C9
:02012000FFCF0F
:00000001FF
