S00B00004144432E7372656351
S11300000C9434000C9449000C9449000C9449005D
S11300100C9449000C9449000C9449000C94490038
S11300200C9449000C9449000C9449000C94490028
S11300300C9449000C9449000C9449000C94490018
S11300400C9449000C9449000C9449000C94490008
S11300500C9449000C9449000C9449000C944900F8
S11300600C9449000C94490011241FBECFEFD8E032
S1130070DEBFCDBF11E0A0E0B1E0ECE1F3E002C0EF
S113008005900D92AC30B107D9F70E945C010C9435
S11300908C010C94000085B1886085B985E08A954F
S11300A0F1F7000085B1877F85B987EC90E001976F
S11300B0F1F700C0000008959BB1937C9BB983FFC6
S11300C003C09BB194609BB982FF03C09BB198604D
S11300D09BB981FF03C09BB190619BB980FF03C0B2
S11300E08BB180628BB90E944B000895CF93C82FC7
S11300F0613021F485B1806185B903C085B18F7EFB
S113010085B98C2F82958F700E945C008C2F8F7024
S11301100E945C00CF910895CF93C82F60E00E94A5
S11301207600C150C23030F48FE39FE10197F1F7BC
S113013000C00000CF91089561E00E947600089508
S1130140882311F090E401C090E0862F8F70890F0E
S113015080680E948C000895CF93DF93EC0103C064
S113016021960E949C0088818111FACFDF91CF9162
S1130170089584B1806184B984B1886084B98AB1F6
S11301808C638AB92FEF89EF90E021508040904032
S1130190E1F700C0000085B18F7E85B985B1877F06
S11301A085B983E00E945C008FE19EE40197F1F73A
S11301B000C0000083E00E945C0087E592E00197A4
S11301C0F1F700C0000083E00E945C0087E592E044
S11301D00197F1F700C0000082E00E945C0087E50F
S11301E092E00197F1F700C0000088E20E948C00C1
S11301F088E00E948C0081E00E948C0086E00E94CE
S11302008C008CE00E948C000895CF93DF93EC0166
S11302108A30910568F09C01ADECBCEC0E947D0134
S11302209695879596958795969587950E9405014D
S11302309E01ADECBCEC0E947D0196958795969548
S11302408795969587959C01220F331F880F991FD8
S1130250880F991F880F991F820F931F9E01281BD7
S1130260390BC901805D0E949C00DF91CF910895F4
S1130270ECE7F0E0808180648083EAE7F0E080814D
S11302808768808308958770ECE7F0E09081987F19
S1130290892B8083EAE7F0E0808180648083809109
S11302A07A0086FDFCCF209178008091790090E05F
S11302B0982F8827822B08950E9438010E94B90044
S11302C060E080E00E94A00080E091E00E94AC0029
S11302D080E00E944301EC0160E081E00E94A00004
S11302E0CE010E9405012FEF89E698E1215080405C
S11302F09040E1F700C00000E1CFA29FB001B39F9E
S1130300C001A39F700D811D1124911DB29F700D1A
S10F0310811D1124911D0895F894FFCF65
S10F031C4144432056414C55453A000032
S9030000FC
